{
  "contractName": "TribeStaking",
  "abi": [
    {
      "anonymous": false,
      "inputs": [
        {
          "indexed": false,
          "internalType": "uint256",
          "name": "_id",
          "type": "uint256"
        }
      ],
      "name": "StakeAdded",
      "type": "event"
    },
    {
      "inputs": [],
      "name": "blocksInterval",
      "outputs": [
        {
          "internalType": "uint256",
          "name": "",
          "type": "uint256"
        }
      ],
      "stateMutability": "view",
      "type": "function"
    },
    {
      "inputs": [],
      "name": "lastValidatorUpdatedBlock",
      "outputs": [
        {
          "internalType": "uint256",
          "name": "",
          "type": "uint256"
        }
      ],
      "stateMutability": "view",
      "type": "function"
    },
    {
      "inputs": [
        {
          "internalType": "uint256",
          "name": "",
          "type": "uint256"
        }
      ],
      "name": "stakes",
      "outputs": [
        {
          "internalType": "address",
          "name": "staker",
          "type": "address"
        },
        {
          "internalType": "uint256",
          "name": "amount",
          "type": "uint256"
        },
        {
          "internalType": "uint256",
          "name": "adjusted",
          "type": "uint256"
        }
      ],
      "stateMutability": "view",
      "type": "function"
    },
    {
      "inputs": [],
      "name": "totalAdjusted",
      "outputs": [
        {
          "internalType": "uint256",
          "name": "",
          "type": "uint256"
        }
      ],
      "stateMutability": "view",
      "type": "function"
    },
    {
      "inputs": [
        {
          "internalType": "uint256",
          "name": "",
          "type": "uint256"
        }
      ],
      "name": "validatorSet",
      "outputs": [
        {
          "internalType": "address",
          "name": "",
          "type": "address"
        }
      ],
      "stateMutability": "view",
      "type": "function"
    },
    {
      "inputs": [],
      "name": "stake",
      "outputs": [],
      "stateMutability": "payable",
      "type": "function"
    },
    {
      "inputs": [],
      "name": "updateValidators",
      "outputs": [],
      "stateMutability": "nonpayable",
      "type": "function"
    },
    {
      "inputs": [
        {
          "internalType": "uint256",
          "name": "_seed",
          "type": "uint256"
        }
      ],
      "name": "getLuckyStake",
      "outputs": [
        {
          "components": [
            {
              "internalType": "address",
              "name": "staker",
              "type": "address"
            },
            {
              "internalType": "uint256",
              "name": "amount",
              "type": "uint256"
            },
            {
              "internalType": "uint256",
              "name": "adjusted",
              "type": "uint256"
            }
          ],
          "internalType": "struct TribeStaking.Stake",
          "name": "",
          "type": "tuple"
        }
      ],
      "stateMutability": "view",
      "type": "function"
    },
    {
      "inputs": [
        {
          "internalType": "uint256",
          "name": "_seed",
          "type": "uint256"
        }
      ],
      "name": "geLuckyStakeIndex",
      "outputs": [
        {
          "internalType": "uint256",
          "name": "",
          "type": "uint256"
        }
      ],
      "stateMutability": "view",
      "type": "function"
    },
    {
      "inputs": [],
      "name": "getAllStakes",
      "outputs": [
        {
          "components": [
            {
              "internalType": "address",
              "name": "staker",
              "type": "address"
            },
            {
              "internalType": "uint256",
              "name": "amount",
              "type": "uint256"
            },
            {
              "internalType": "uint256",
              "name": "adjusted",
              "type": "uint256"
            }
          ],
          "internalType": "struct TribeStaking.Stake[]",
          "name": "",
          "type": "tuple[]"
        }
      ],
      "stateMutability": "view",
      "type": "function"
    },
    {
      "inputs": [],
      "name": "getAllValidators",
      "outputs": [
        {
          "internalType": "address[5]",
          "name": "",
          "type": "address[5]"
        }
      ],
      "stateMutability": "view",
      "type": "function"
    },
    {
      "inputs": [
        {
          "internalType": "uint256",
          "name": "_seed",
          "type": "uint256"
        }
      ],
      "name": "randomNumber",
      "outputs": [
        {
          "internalType": "uint256",
          "name": "",
          "type": "uint256"
        }
      ],
      "stateMutability": "view",
      "type": "function"
    },
    {
      "inputs": [
        {
          "internalType": "uint256",
          "name": "_amount",
          "type": "uint256"
        }
      ],
      "name": "adjust",
      "outputs": [
        {
          "internalType": "uint256",
          "name": "",
          "type": "uint256"
        }
      ],
      "stateMutability": "pure",
      "type": "function"
    }
  ],
  "bytecode": "0x6080604052600160035534801561001557600080fd5b50610eba806100256000396000f3fe6080604052600436106100c25760003560e01c8063aad878001161007f578063e64808f311610059578063e64808f31461024d578063f3513a371461028a578063f970dd02146102b5578063ff9809b6146102f2576100c2565b8063aad87800146101a6578063d5a44f86146101e3578063d5be945e14610222576100c2565b80632d35f2a6146100c75780632d497ba2146101045780633a4b66f11461011b5780633c611e0514610125578063839b307d146101505780639bf47c5b1461017b575b600080fd5b3480156100d357600080fd5b506100ee60048036038101906100e991906109c9565b61032f565b6040516100fb9190610d66565b60405180910390f35b34801561011057600080fd5b506101196103d6565b005b6101236104b0565b005b34801561013157600080fd5b5061013a61060d565b6040516101479190610d04565b60405180910390f35b34801561015c57600080fd5b506101656106d6565b6040516101729190610d81565b60405180910390f35b34801561018757600080fd5b506101906106dc565b60405161019d9190610d81565b60405180910390f35b3480156101b257600080fd5b506101cd60048036038101906101c891906109c9565b6106e2565b6040516101da9190610d81565b60405180910390f35b3480156101ef57600080fd5b5061020a600480360381019061020591906109c9565b6106ec565b60405161021993929190610cb2565b60405180910390f35b34801561022e57600080fd5b50610237610743565b6040516102449190610d81565b60405180910390f35b34801561025957600080fd5b50610274600480360381019061026f91906109c9565b610749565b6040516102819190610c97565b60405180910390f35b34801561029657600080fd5b5061029f61077c565b6040516102ac9190610ce9565b60405180910390f35b3480156102c157600080fd5b506102dc60048036038101906102d791906109c9565b6107fd565b6040516102e99190610d81565b60405180910390f35b3480156102fe57600080fd5b50610319600480360381019061031491906109c9565b610836565b6040516103269190610d81565b60405180910390f35b61033761089b565b600061034283610836565b8154811061034c57fe5b90600052602060002090600302016040518060600160405290816000820160009054906101000a900473ffffffffffffffffffffffffffffffffffffffff1673ffffffffffffffffffffffffffffffffffffffff1673ffffffffffffffffffffffffffffffffffffffff168152602001600182015481526020016002820154815250509050919050565b4360025460035401111561041f576040517f08c379a000000000000000000000000000000000000000000000000000000000815260040161041690610d46565b60405180910390fd5b6104276108d2565b60008090505b60058110156104935761043f8161032f565b6000015182826005811061044f57fe5b602002019073ffffffffffffffffffffffffffffffffffffffff16908173ffffffffffffffffffffffffffffffffffffffff1681525050808060010191505061042d565b508060049060056104a59291906108f4565b504360028190555050565b600034116104f3576040517f08c379a00000000000000000000000000000000000000000000000000000000081526004016104ea90610d26565b60405180910390fd5b60006104fe346106e2565b9050600080805490509050600060405180606001604052803373ffffffffffffffffffffffffffffffffffffffff16815260200134815260200184815250908060018154018082558091505060019003906000526020600020906003020160009091909190915060008201518160000160006101000a81548173ffffffffffffffffffffffffffffffffffffffff021916908373ffffffffffffffffffffffffffffffffffffffff16021790555060208201518160010155604082015181600201555050816001600082825401925050819055507f7dc4148fd3bf433167a80cfffeec7e61ab7018a9ee10b397bbad4796aff4d38e816040516106019190610d81565b60405180910390a15050565b60606000805480602002602001604051908101604052809291908181526020016000905b828210156106cd57838290600052602060002090600302016040518060600160405290816000820160009054906101000a900473ffffffffffffffffffffffffffffffffffffffff1673ffffffffffffffffffffffffffffffffffffffff1673ffffffffffffffffffffffffffffffffffffffff1681526020016001820154815260200160028201548152505081526020019060010190610631565b50505050905090565b60015481565b60035481565b6000819050919050565b600081815481106106f957fe5b90600052602060002090600302016000915090508060000160009054906101000a900473ffffffffffffffffffffffffffffffffffffffff16908060010154908060020154905083565b60025481565b6004816005811061075657fe5b016000915054906101000a900473ffffffffffffffffffffffffffffffffffffffff1681565b6107846108d2565b60046005806020026040519081016040528092919082600580156107f3576020028201915b8160009054906101000a900473ffffffffffffffffffffffffffffffffffffffff1673ffffffffffffffffffffffffffffffffffffffff16815260200190600101908083116107a9575b5050505050905090565b6000600143034082604051602001610816929190610c6b565b6040516020818303038152906040528051906020012060001c9050919050565b600080600154610845846107fd565b8161084c57fe5b06905060008090505b600082131561088e576000818154811061086b57fe5b906000526020600020906003020160020154820391508080600101915050610855565b6001810392505050919050565b6040518060600160405280600073ffffffffffffffffffffffffffffffffffffffff16815260200160008152602001600081525090565b6040518060a00160405280600590602082028036833780820191505090505090565b8260058101928215610960579160200282015b8281111561095f5782518260006101000a81548173ffffffffffffffffffffffffffffffffffffffff021916908373ffffffffffffffffffffffffffffffffffffffff16021790555091602001919060010190610907565b5b50905061096d9190610971565b5090565b6109b191905b808211156109ad57600081816101000a81549073ffffffffffffffffffffffffffffffffffffffff021916905550600101610977565b5090565b90565b6000813590506109c381610e6d565b92915050565b6000602082840312156109db57600080fd5b60006109e9848285016109b4565b91505092915050565b60006109fe8383610a22565b60208301905092915050565b6000610a168383610bb2565b60608301905092915050565b610a2b81610e13565b82525050565b610a3a81610e13565b82525050565b610a4981610db6565b610a538184610de6565b9250610a5e82610d9c565b8060005b83811015610a8f578151610a7687826109f2565b9650610a8183610dcc565b925050600181019050610a62565b505050505050565b6000610aa282610dc1565b610aac8185610df1565b9350610ab783610da6565b8060005b83811015610ae8578151610acf8882610a0a565b9750610ada83610dd9565b925050600181019050610abb565b5085935050505092915050565b610b06610b0182610e25565b610e59565b82525050565b6000610b19601b83610e02565b91507f7374616b652073686f756c64206265206d6f7265207468616e203000000000006000830152602082019050919050565b6000610b59602283610e02565b91507f63616e6e6f74207570646174652076616c696461746f727320746f6f2065617260008301527f6c790000000000000000000000000000000000000000000000000000000000006020830152604082019050919050565b606082016000820151610bc86000850182610a22565b506020820151610bdb6020850182610c36565b506040820151610bee6040850182610c36565b50505050565b606082016000820151610c0a6000850182610a22565b506020820151610c1d6020850182610c36565b506040820151610c306040850182610c36565b50505050565b610c3f81610e4f565b82525050565b610c4e81610e4f565b82525050565b610c65610c6082610e4f565b610e63565b82525050565b6000610c778285610af5565b602082019150610c878284610c54565b6020820191508190509392505050565b6000602082019050610cac6000830184610a31565b92915050565b6000606082019050610cc76000830186610a31565b610cd46020830185610c45565b610ce16040830184610c45565b949350505050565b600060a082019050610cfe6000830184610a40565b92915050565b60006020820190508181036000830152610d1e8184610a97565b905092915050565b60006020820190508181036000830152610d3f81610b0c565b9050919050565b60006020820190508181036000830152610d5f81610b4c565b9050919050565b6000606082019050610d7b6000830184610bf4565b92915050565b6000602082019050610d966000830184610c45565b92915050565b6000819050919050565b6000819050602082019050919050565b600060059050919050565b600081519050919050565b6000602082019050919050565b6000602082019050919050565b600081905092915050565b600082825260208201905092915050565b600082825260208201905092915050565b6000610e1e82610e2f565b9050919050565b6000819050919050565b600073ffffffffffffffffffffffffffffffffffffffff82169050919050565b6000819050919050565b6000819050919050565b6000819050919050565b610e7681610e4f565b8114610e8157600080fd5b5056fea264697066735822122070b982175336728f67eddc9ddfed0770aa16ef49740c97f5bb7928eee7fb73af64736f6c63430006060033",
  "immutableReferences": {},
  "source": "// SPDX-License-Identifier: MIT\n\npragma solidity ^0.6.6;\npragma experimental ABIEncoderV2;\n\ncontract TribeStaking {\n  struct Stake {\n    address staker;\n    uint256 amount;\n    uint256 adjusted; /// @dev adjusted staking amount which will be considered for PoS\n  }\n\n  Stake[] public stakes;\n  uint256 public totalAdjusted;\n\n  uint256 public lastValidatorUpdatedBlock;\n  uint256 public blocksInterval = 1; /// @dev interval for calling updateValidators repeatedly\n  address[5] public validatorSet;\n\n  event StakeAdded(uint256 _id);\n\n  function stake() public payable {\n    require(msg.value > 0, 'stake should be more than 0');\n\n    // TODO: revert if less gas is sent\n\n    uint256 _adjusted = adjust(msg.value);\n    uint256 _stakeId = stakes.length;\n\n    stakes.push(Stake({\n      staker: msg.sender,\n      amount: msg.value,\n      adjusted: _adjusted\n    }));\n\n    totalAdjusted += _adjusted;\n\n    emit StakeAdded(_stakeId);\n  }\n\n  // TODO: move to another contract\n  function updateValidators() public {\n    require(blocksInterval + lastValidatorUpdatedBlock <= block.number, 'cannot update validators too early');\n\n    address[5] memory _newValidatorSet;\n\n    for(uint256 i = 0; i < 5; i++) {\n      _newValidatorSet[i] = getLuckyStake(i).staker;\n    }\n\n    validatorSet = _newValidatorSet;\n    lastValidatorUpdatedBlock = block.number;\n  }\n\n  function getLuckyStake(uint256 _seed) public view returns (Stake memory) {\n    return stakes[geLuckyStakeIndex(_seed)];\n  }\n\n  function geLuckyStakeIndex(uint256 _seed) public view returns (uint256) {\n    int256 _luckyStake = int256(randomNumber(_seed) % totalAdjusted);\n\n    uint256 i = 0;\n    while(_luckyStake > 0) {\n      _luckyStake -= int256(stakes[i].adjusted);\n      i++;\n    }\n\n    return i - 1;\n  }\n\n  function getAllStakes() public view returns(Stake[] memory) {\n    return stakes;\n  }\n\n  function getAllValidators() public view returns(address[5] memory) {\n    return validatorSet;\n  }\n\n  function randomNumber(uint256 _seed) public view returns (uint256) {\n    return uint256(keccak256(abi.encodePacked(blockhash(block.number - 1), _seed)));\n  }\n\n  function adjust(uint256 _amount) public pure returns (uint256) {\n    // TODO: add a quadratic adjustment (should be designed based on\n    //  currency total supply and expected staking supply)\n    return _amount;\n  }\n}\n",
  "sourcePath": "/Users/dhanendra/Gokul/TribeNet/contracts/TribeStaking.sol",
  "compiler": {
    "name": "solc",
    "version": "0.6.6+commit.6c089d02.Emscripten.clang"
  },
  "schemaVersion": "3.2.4",
  "updatedAt": "2020-10-01T05:55:16.276Z",
  "devdoc": {
    "methods": {}
  },
  "userdoc": {
    "methods": {}
  }
}