{
  "contractName": "TribeAuthority",
  "abi": [
    {
      "anonymous": false,
      "inputs": [
        {
          "indexed": false,
          "internalType": "address[]",
          "name": "newSet",
          "type": "address[]"
        }
      ],
      "name": "ChangeFinalized",
      "type": "event"
    },
    {
      "anonymous": false,
      "inputs": [
        {
          "indexed": true,
          "internalType": "bytes32",
          "name": "parentHash",
          "type": "bytes32"
        },
        {
          "indexed": false,
          "internalType": "address[]",
          "name": "newSet",
          "type": "address[]"
        }
      ],
      "name": "InitiateChange",
      "type": "event"
    },
    {
      "anonymous": false,
      "inputs": [
        {
          "indexed": false,
          "internalType": "address",
          "name": "proxyStorage",
          "type": "address"
        }
      ],
      "name": "MoCInitializedProxyStorage",
      "type": "event"
    },
    {
      "inputs": [
        {
          "internalType": "uint256",
          "name": "",
          "type": "uint256"
        }
      ],
      "name": "currentValidators",
      "outputs": [
        {
          "internalType": "address",
          "name": "",
          "type": "address"
        }
      ],
      "stateMutability": "view",
      "type": "function"
    },
    {
      "inputs": [],
      "name": "finalized",
      "outputs": [
        {
          "internalType": "bool",
          "name": "",
          "type": "bool"
        }
      ],
      "stateMutability": "view",
      "type": "function"
    },
    {
      "inputs": [
        {
          "internalType": "uint256",
          "name": "",
          "type": "uint256"
        }
      ],
      "name": "pendingList",
      "outputs": [
        {
          "internalType": "address",
          "name": "",
          "type": "address"
        }
      ],
      "stateMutability": "view",
      "type": "function"
    },
    {
      "inputs": [],
      "name": "systemAddress",
      "outputs": [
        {
          "internalType": "address",
          "name": "",
          "type": "address"
        }
      ],
      "stateMutability": "view",
      "type": "function"
    },
    {
      "inputs": [
        {
          "internalType": "address",
          "name": "",
          "type": "address"
        }
      ],
      "name": "validatorsState",
      "outputs": [
        {
          "internalType": "bool",
          "name": "isValidator",
          "type": "bool"
        },
        {
          "internalType": "bool",
          "name": "isValidatorFinalized",
          "type": "bool"
        },
        {
          "internalType": "uint256",
          "name": "index",
          "type": "uint256"
        }
      ],
      "stateMutability": "view",
      "type": "function"
    },
    {
      "inputs": [],
      "name": "wasProxyStorageSet",
      "outputs": [
        {
          "internalType": "bool",
          "name": "",
          "type": "bool"
        }
      ],
      "stateMutability": "view",
      "type": "function"
    },
    {
      "inputs": [],
      "name": "isMasterOfCeremonyRemoved",
      "outputs": [
        {
          "internalType": "bool",
          "name": "",
          "type": "bool"
        }
      ],
      "stateMutability": "view",
      "type": "function"
    },
    {
      "inputs": [],
      "name": "isMasterOfCeremonyRemovedPending",
      "outputs": [
        {
          "internalType": "bool",
          "name": "",
          "type": "bool"
        }
      ],
      "stateMutability": "view",
      "type": "function"
    },
    {
      "inputs": [],
      "name": "masterOfCeremony",
      "outputs": [
        {
          "internalType": "address",
          "name": "",
          "type": "address"
        }
      ],
      "stateMutability": "view",
      "type": "function"
    },
    {
      "inputs": [],
      "name": "masterOfCeremonyPending",
      "outputs": [
        {
          "internalType": "address",
          "name": "",
          "type": "address"
        }
      ],
      "stateMutability": "view",
      "type": "function"
    },
    {
      "inputs": [],
      "name": "finalizeChange",
      "outputs": [],
      "stateMutability": "nonpayable",
      "type": "function"
    },
    {
      "inputs": [
        {
          "internalType": "address",
          "name": "_validator",
          "type": "address"
        },
        {
          "internalType": "bool",
          "name": "_shouldFireEvent",
          "type": "bool"
        }
      ],
      "name": "addValidator",
      "outputs": [
        {
          "internalType": "bool",
          "name": "",
          "type": "bool"
        }
      ],
      "stateMutability": "nonpayable",
      "type": "function"
    },
    {
      "inputs": [
        {
          "internalType": "address",
          "name": "_validator",
          "type": "address"
        },
        {
          "internalType": "bool",
          "name": "_shouldFireEvent",
          "type": "bool"
        }
      ],
      "name": "removeValidator",
      "outputs": [
        {
          "internalType": "bool",
          "name": "",
          "type": "bool"
        }
      ],
      "stateMutability": "nonpayable",
      "type": "function"
    },
    {
      "inputs": [
        {
          "internalType": "address",
          "name": "_newKey",
          "type": "address"
        },
        {
          "internalType": "address",
          "name": "_oldKey",
          "type": "address"
        }
      ],
      "name": "swapValidatorKey",
      "outputs": [
        {
          "internalType": "bool",
          "name": "",
          "type": "bool"
        }
      ],
      "stateMutability": "nonpayable",
      "type": "function"
    },
    {
      "inputs": [
        {
          "internalType": "address",
          "name": "_someone",
          "type": "address"
        }
      ],
      "name": "isValidator",
      "outputs": [
        {
          "internalType": "bool",
          "name": "",
          "type": "bool"
        }
      ],
      "stateMutability": "view",
      "type": "function"
    },
    {
      "inputs": [
        {
          "internalType": "address",
          "name": "_someone",
          "type": "address"
        }
      ],
      "name": "isValidatorFinalized",
      "outputs": [
        {
          "internalType": "bool",
          "name": "",
          "type": "bool"
        }
      ],
      "stateMutability": "view",
      "type": "function"
    },
    {
      "inputs": [],
      "name": "getCurrentValidatorsLength",
      "outputs": [
        {
          "internalType": "uint256",
          "name": "",
          "type": "uint256"
        }
      ],
      "stateMutability": "view",
      "type": "function"
    },
    {
      "inputs": [],
      "name": "getCurrentValidatorsLengthWithoutMoC",
      "outputs": [
        {
          "internalType": "uint256",
          "name": "",
          "type": "uint256"
        }
      ],
      "stateMutability": "view",
      "type": "function"
    }
  ],
  "bytecode": "0x608060405273fffffffffffffffffffffffffffffffffffffffe6000806101000a81548173ffffffffffffffffffffffffffffffffffffffff021916908373ffffffffffffffffffffffffffffffffffffffff1602179055506000600660146101000a81548160ff0219169083151502179055506000600660156101000a81548160ff0219169083151502179055506000600660166101000a81548160ff0219169083151502179055506000600660176101000a81548160ff0219169083151502179055503480156100d057600080fd5b50611481806100e06000396000f3fe608060405234801561001057600080fd5b50600436106101165760003560e01c8063900eb5a8116100a2578063d3e848f111610071578063d3e848f114610473578063ec7de1e9146104bd578063f89a77b114610507578063fa81b2001461056f578063facd743b146105b957610116565b8063900eb5a8146103a3578063a5f8b87414610411578063a875633714610433578063b3f05b971461045157610116565b8063379fed9a116100e9578063379fed9a146102315780634110a4891461025357806375286211146102c1578063879736b2146102cb5780638f2eabe11461034757610116565b806303aca7921461011b5780630eaba26a1461018957806321a3fb85146101a7578063273cb5931461020f575b600080fd5b6101476004803603602081101561013157600080fd5b8101908080359060200190929190505050610615565b604051808273ffffffffffffffffffffffffffffffffffffffff1673ffffffffffffffffffffffffffffffffffffffff16815260200191505060405180910390f35b610191610651565b6040518082815260200191505060405180910390f35b6101f5600480360360408110156101bd57600080fd5b81019080803573ffffffffffffffffffffffffffffffffffffffff16906020019092919080351515906020019092919050505061065e565b604051808215151515815260200191505060405180910390f35b61021761068c565b604051808215151515815260200191505060405180910390f35b6102396106a3565b604051808215151515815260200191505060405180910390f35b6102956004803603602081101561026957600080fd5b81019080803573ffffffffffffffffffffffffffffffffffffffff1690602001909291905050506106ba565b604051808415151515815260200183151515158152602001828152602001935050505060405180910390f35b6102c96106fe565b005b61032d600480360360408110156102e157600080fd5b81019080803573ffffffffffffffffffffffffffffffffffffffff169060200190929190803573ffffffffffffffffffffffffffffffffffffffff1690602001909291905050506109b8565b604051808215151515815260200191505060405180910390f35b6103896004803603602081101561035d57600080fd5b81019080803573ffffffffffffffffffffffffffffffffffffffff169060200190929190505050610b4d565b604051808215151515815260200191505060405180910390f35b6103cf600480360360208110156103b957600080fd5b8101908080359060200190929190505050610c09565b604051808273ffffffffffffffffffffffffffffffffffffffff1673ffffffffffffffffffffffffffffffffffffffff16815260200191505060405180910390f35b610419610c45565b604051808215151515815260200191505060405180910390f35b61043b610c58565b6040518082815260200191505060405180910390f35b610459610ca1565b604051808215151515815260200191505060405180910390f35b61047b610cb4565b604051808273ffffffffffffffffffffffffffffffffffffffff1673ffffffffffffffffffffffffffffffffffffffff16815260200191505060405180910390f35b6104c5610cd9565b604051808273ffffffffffffffffffffffffffffffffffffffff1673ffffffffffffffffffffffffffffffffffffffff16815260200191505060405180910390f35b6105556004803603604081101561051d57600080fd5b81019080803573ffffffffffffffffffffffffffffffffffffffff169060200190929190803515159060200190929190505050610d03565b604051808215151515815260200191505060405180910390f35b610577610d31565b604051808273ffffffffffffffffffffffffffffffffffffffff1673ffffffffffffffffffffffffffffffffffffffff16815260200191505060405180910390f35b6105fb600480360360208110156105cf57600080fd5b81019080803573ffffffffffffffffffffffffffffffffffffffff169060200190929190505050610d5b565b604051808215151515815260200191505060405180910390f35b6002818154811061062257fe5b906000526020600020016000915054906101000a900473ffffffffffffffffffffffffffffffffffffffff1681565b6000600180549050905090565b600061066983610db4565b15610681576106788383610e14565b60019050610686565b600090505b92915050565b6000600660159054906101000a900460ff16905090565b6000600660149054906101000a900460ff16905090565b60036020528060005260406000206000915090508060000160009054906101000a900460ff16908060000160019054906101000a900460ff16908060010154905083565b6000809054906101000a900473ffffffffffffffffffffffffffffffffffffffff1673ffffffffffffffffffffffffffffffffffffffff163373ffffffffffffffffffffffffffffffffffffffff161480156107675750600660169054906101000a900460ff16155b61077057600080fd5b6001600660166101000a81548160ff02191690831515021790555060008090505b60028054905081101561085a57600060036000600284815481106107b157fe5b9060005260206000200160009054906101000a900473ffffffffffffffffffffffffffffffffffffffff1673ffffffffffffffffffffffffffffffffffffffff1673ffffffffffffffffffffffffffffffffffffffff16815260200190815260200160002090508060000160019054906101000a900460ff1661084c5760018160000160016101000a81548160ff0219169083151502179055505b508080600101915050610791565b506002600190805461086d9291906113b6565b50600073ffffffffffffffffffffffffffffffffffffffff16600560009054906101000a900473ffffffffffffffffffffffffffffffffffffffff1673ffffffffffffffffffffffffffffffffffffffff161461096a57600560009054906101000a900473ffffffffffffffffffffffffffffffffffffffff16600460006101000a81548173ffffffffffffffffffffffffffffffffffffffff021916908373ffffffffffffffffffffffffffffffffffffffff1602179055506000600560006101000a81548173ffffffffffffffffffffffffffffffffffffffff021916908373ffffffffffffffffffffffffffffffffffffffff1602179055505b600660159054906101000a900460ff16156109b6576001600660146101000a81548160ff0219169083151502179055506000600660156101000a81548160ff0219169083151502179055505b565b60006109c382611000565b15806109d557506109d383610db4565b155b156109e35760009050610b47565b6109ee826000611038565b6109f9836000610e14565b600460009054906101000a900473ffffffffffffffffffffffffffffffffffffffff1673ffffffffffffffffffffffffffffffffffffffff168273ffffffffffffffffffffffffffffffffffffffff161415610a915782600560006101000a81548173ffffffffffffffffffffffffffffffffffffffff021916908373ffffffffffffffffffffffffffffffffffffffff1602179055505b60014303407f55252fa6eee4741b4e24a74a70e9c11fd2c2281df8d6ea13126ff845f7825c89600260405180806020018281038252838181548152602001915080548015610b3457602002820191906000526020600020905b8160009054906101000a900473ffffffffffffffffffffffffffffffffffffffff1673ffffffffffffffffffffffffffffffffffffffff1681526020019060010190808311610aea575b50509250505060405180910390a2600190505b92915050565b600080600360008473ffffffffffffffffffffffffffffffffffffffff1673ffffffffffffffffffffffffffffffffffffffff16815260200190815260200160002060000160009054906101000a900460ff1690506000600360008573ffffffffffffffffffffffffffffffffffffffff1673ffffffffffffffffffffffffffffffffffffffff16815260200190815260200160002060000160019054906101000a900460ff169050818015610c005750805b92505050919050565b60018181548110610c1657fe5b906000526020600020016000915054906101000a900473ffffffffffffffffffffffffffffffffffffffff1681565b600660179054906101000a900460ff1681565b6000600660149054906101000a900460ff1615610c7c576001805490509050610c9e565b60006001805490501415610c935760009050610c9e565b600180805490500390505b90565b600660169054906101000a900460ff1681565b6000809054906101000a900473ffffffffffffffffffffffffffffffffffffffff1681565b6000600560009054906101000a900473ffffffffffffffffffffffffffffffffffffffff16905090565b6000610d0e83611000565b15610d2657610d1d8383611038565b60019050610d2b565b600090505b92915050565b6000600460009054906101000a900473ffffffffffffffffffffffffffffffffffffffff16905090565b6000600360008373ffffffffffffffffffffffffffffffffffffffff1673ffffffffffffffffffffffffffffffffffffffff16815260200190815260200160002060000160009054906101000a900460ff169050919050565b60008073ffffffffffffffffffffffffffffffffffffffff168273ffffffffffffffffffffffffffffffffffffffff161415610df35760009050610e0f565b610dfc82610d5b565b15610e0a5760009050610e0f565b600190505b919050565b6040518060600160405280600115158152602001600015158152602001600280549050815250600360008473ffffffffffffffffffffffffffffffffffffffff1673ffffffffffffffffffffffffffffffffffffffff16815260200190815260200160002060008201518160000160006101000a81548160ff02191690831515021790555060208201518160000160016101000a81548160ff021916908315150217905550604082015181600101559050506002829080600181540180825580915050600190039060005260206000200160009091909190916101000a81548173ffffffffffffffffffffffffffffffffffffffff021916908373ffffffffffffffffffffffffffffffffffffffff1602179055506000600660166101000a81548160ff0219169083151502179055508015610ffc5760014303407f55252fa6eee4741b4e24a74a70e9c11fd2c2281df8d6ea13126ff845f7825c89600260405180806020018281038252838181548152602001915080548015610fed57602002820191906000526020600020905b8160009054906101000a900473ffffffffffffffffffffffffffffffffffffffff1673ffffffffffffffffffffffffffffffffffffffff1681526020019060010190808311610fa3575b50509250505060405180910390a25b5050565b60008060028054905014156110185760009050611033565b61102182610d5b565b61102e5760009050611033565b600190505b919050565b6000600360008473ffffffffffffffffffffffffffffffffffffffff1673ffffffffffffffffffffffffffffffffffffffff1681526020019081526020016000206001015490506000600160028054905003905060006002828154811061109b57fe5b9060005260206000200160009054906101000a900473ffffffffffffffffffffffffffffffffffffffff16905080600284815481106110d657fe5b9060005260206000200160006101000a81548173ffffffffffffffffffffffffffffffffffffffff021916908373ffffffffffffffffffffffffffffffffffffffff16021790555082600360008373ffffffffffffffffffffffffffffffffffffffff1673ffffffffffffffffffffffffffffffffffffffff16815260200190815260200160002060010181905550600280549050506000600360008773ffffffffffffffffffffffffffffffffffffffff1673ffffffffffffffffffffffffffffffffffffffff168152602001908152602001600020600101819055506000600360008773ffffffffffffffffffffffffffffffffffffffff1673ffffffffffffffffffffffffffffffffffffffff16815260200190815260200160002060000160006101000a81548160ff0219169083151502179055506000600360008773ffffffffffffffffffffffffffffffffffffffff1673ffffffffffffffffffffffffffffffffffffffff16815260200190815260200160002060000160016101000a81548160ff0219169083151502179055506000600660166101000a81548160ff02191690831515021790555083156113af57600460009054906101000a900473ffffffffffffffffffffffffffffffffffffffff1673ffffffffffffffffffffffffffffffffffffffff168573ffffffffffffffffffffffffffffffffffffffff1614156112fd576001600660156101000a81548160ff0219169083151502179055505b60014303407f55252fa6eee4741b4e24a74a70e9c11fd2c2281df8d6ea13126ff845f7825c896002604051808060200182810382528381815481526020019150805480156113a057602002820191906000526020600020905b8160009054906101000a900473ffffffffffffffffffffffffffffffffffffffff1673ffffffffffffffffffffffffffffffffffffffff1681526020019060010190808311611356575b50509250505060405180910390a25b5050505050565b8280548282559060005260206000209081019282156113f75760005260206000209182015b828111156113f65782548255916001019190600101906113db565b5b5090506114049190611408565b5090565b61144891905b8082111561144457600081816101000a81549073ffffffffffffffffffffffffffffffffffffffff02191690555060010161140e565b5090565b9056fea2646970667358221220c45826ea94b9ff2d49cbeb3897a9f34f69b1643ab1879d8efdd0cf78e6f122e164736f6c63430006060033",
  "immutableReferences": {},
  "source": "// SPDX-License-Identifier: MIT\n\npragma solidity ^0.6.6;\n\n\ncontract TribeAuthority {\n    \n    event InitiateChange(bytes32 indexed parentHash, address[] newSet);\n    event ChangeFinalized(address[] newSet);\n    event MoCInitializedProxyStorage(address proxyStorage);\n    \n    struct ValidatorState {\n        // Is this a validator.\n        bool isValidator;\n        // Is a validator finalized.\n        bool isValidatorFinalized;\n        // Index in the currentValidators.\n        uint256 index;\n    }\n    \n    address public systemAddress = 0xffffFFFfFFffffffffffffffFfFFFfffFFFfFFfE;\n    \n    address[] public currentValidators;\n    address[] public pendingList;\n    mapping(address => ValidatorState) public validatorsState;\n    \n    address internal _moc;\n    address internal _mocPending;\n    address internal _owner;\n\n    bool internal _isMoCRemoved = false;\n    bool internal _isMoCRemovedPending = false;\n\n    bool public finalized = false;\n    bool public wasProxyStorageSet = false;\n\n    modifier onlySystemAndNotFinalized() {\n        require(msg.sender == systemAddress && !finalized);\n        _;\n    }\n\n    function isMasterOfCeremonyRemoved() public view returns(bool) {\n        return _isMoCRemoved;\n    }\n\n    function isMasterOfCeremonyRemovedPending() public view returns(bool) {\n        return _isMoCRemovedPending;\n    }\n\n    function masterOfCeremony() public view returns(address) {\n        return _moc;\n    }\n\n    function masterOfCeremonyPending() public view returns(address) {\n        return _mocPending;\n    }\n\n   \n\n    /// Called when an initiated change reaches finality and is activated. \n    /// Only valid when msg.sender == SUPER_USER (EIP96, 2**160 - 2)\n    ///\n    /// Also called when the contract is first enabled for consensus. In this case,\n    /// the \"change\" finalized is the activation of the initial set.\n    \n    function finalizeChange() public onlySystemAndNotFinalized {\n        finalized = true;\n        for (uint256 i = 0; i < pendingList.length; i++) {\n            ValidatorState storage state = validatorsState[pendingList[i]];\n            if (!state.isValidatorFinalized) {\n                state.isValidatorFinalized = true;\n            }\n        }\n        currentValidators = pendingList;\n        if (_mocPending != address(0)) {\n            _moc = _mocPending;\n            _mocPending = address(0);\n        }\n        if (_isMoCRemovedPending) {\n            _isMoCRemoved = true;\n            _isMoCRemovedPending = false;\n        }\n\n    }\n\n    function addValidator(address _validator, bool _shouldFireEvent)\n        public\n        returns(bool)\n    {\n        if (_addValidatorAllowed(_validator)) {\n            _addValidator(_validator, _shouldFireEvent);\n            return true;\n        }\n        return false;\n    }\n\n    function removeValidator(\n        address _validator,\n        bool _shouldFireEvent\n    ) public  returns(bool) {\n        if (_removeValidatorAllowed(_validator)) {\n            _removeValidator(_validator, _shouldFireEvent);\n            return true;\n        }\n        return false;\n    }\n\n    function swapValidatorKey(address _newKey, address _oldKey)\n        public\n        returns(bool)\n    {\n        if (!_removeValidatorAllowed(_oldKey) || !_addValidatorAllowed(_newKey)) return false;\n        _removeValidator(_oldKey, false);\n        _addValidator(_newKey, false);\n        if (_oldKey == _moc) {\n            _mocPending = _newKey;\n        }\n        emit InitiateChange(blockhash(block.number - 1), pendingList);\n        return true;\n    }\n\n    \n\n    function isValidator(address _someone) public view returns(bool) {\n        return validatorsState[_someone].isValidator;\n    }\n\n    function isValidatorFinalized(address _someone) public view returns(bool) {\n        bool _isValidator = validatorsState[_someone].isValidator;\n        bool _isFinalized = validatorsState[_someone].isValidatorFinalized;\n        return _isValidator && _isFinalized;\n    }\n\n\n    function getCurrentValidatorsLength() public view returns(uint256) {\n        return currentValidators.length;\n    }\n\n    function getCurrentValidatorsLengthWithoutMoC() public view returns(uint256) {\n        if (_isMoCRemoved) {\n            return currentValidators.length;\n        }\n        if (currentValidators.length == 0) {\n            return 0;\n        }\n        return currentValidators.length - 1; // exclude MoC\n    }\n\n    function _addValidatorAllowed(address _validator) private view returns(bool) {\n        if (_validator == address(0)) return false;\n        if (isValidator(_validator)) return false;\n        return true;\n    }\n\n    function _addValidator(address _validator, bool _shouldFireEvent) private {\n        validatorsState[_validator] = ValidatorState({\n            isValidator: true,\n            isValidatorFinalized: false,\n            index: pendingList.length\n        });\n        pendingList.push(_validator);\n        finalized = false;\n        if (_shouldFireEvent) {\n            emit InitiateChange(blockhash(block.number - 1), pendingList);\n        }\n    }\n\n    function _removeValidatorAllowed(address _validator) private view returns(bool) {\n        if (pendingList.length == 0) return false;\n        if (!isValidator(_validator)) return false;\n        return true;\n    }\n\n    function _removeValidator(address _validator, bool _shouldFireEvent) private {\n        uint256 removedIndex = validatorsState[_validator].index;\n        // Can not remove the last validator.\n        uint256 lastIndex = pendingList.length - 1;\n        address lastValidator = pendingList[lastIndex];\n        // Override the removed validator with the last one.\n        pendingList[removedIndex] = lastValidator;\n        // Update the index of the last validator.\n        validatorsState[lastValidator].index = removedIndex;\n        pendingList.length;\n        validatorsState[_validator].index = 0;\n        validatorsState[_validator].isValidator = false;\n        validatorsState[_validator].isValidatorFinalized = false;\n        finalized = false;\n        if (_shouldFireEvent) {\n            if (_validator == _moc) {\n                _isMoCRemovedPending = true;\n            }\n            emit InitiateChange(blockhash(block.number - 1), pendingList);\n        }\n    }\n}\n",
  "sourcePath": "/Users/gokulalex/Apps/eth_apps/TribeNet/smartcontracts/contracts/TribeAuthority.sol",
  "compiler": {
    "name": "solc",
    "version": "0.6.6+commit.6c089d02.Emscripten.clang"
  },
  "schemaVersion": "3.2.5",
  "updatedAt": "2020-09-30T15:34:21.940Z",
  "devdoc": {
    "methods": {}
  },
  "userdoc": {
    "methods": {
      "finalizeChange()": {
        "notice": "Called when an initiated change reaches finality and is activated.  Only valid when msg.sender == SUPER_USER (EIP96, 2**160 - 2)     /// Also called when the contract is first enabled for consensus. In this case, the \"change\" finalized is the activation of the initial set."
      }
    }
  }
}